:020000040800F2
:1000000000280020811D0008BD1B0008C51B00083A
:10001000CD1B0008D51B0008DD1B000800000000F8
:10002000000000000000000000000000E51B0008C8
:10003000F11B000800000000FD1B0008091C00085F
:10004000C91D0008C91D0008C91D0008C91D0008F8
:10005000C91D0008C91D0008C91D0008C91D0008E8
:10006000C91D0008C91D0008C91D0008C91D0008D8
:10007000C91D0008C91D0008C91D0008C91D0008C8
:10008000C91D0008C91D0008C91D0008C91D0008B8
:10009000C91D0008C91D0008C91D0008C91D0008A8
:1000A000C91D0008C91D0008C91D0008C91D000898
:1000B000151C0008C91D000800000000C91D00082B
:1000C000C91D00080000000000000000C91D000854
:1000D00000000000C91D0008C91D00080000000044
:1000E000C91D0008C91D0008C91D00080000000046
:1000F0000000000000000000000000000000000000
:0C01000000000000000000005FF808F1A3
:1001100010B5054C237833B9044B13B10448AFF341
:1001200000800123237010BD440000200000000067
:10013000F834000808B5034B1BB103490348AFF37B
:10014000008008BD0000000048000020F8340008CE
:1001500070B54FF0FF0C4CF4E06C1CEA11541DBF5D
:100160001CEA135594EA0C0F95EA0C0F00F0DEF828
:100170002C4481EA030621EA4C5123EA4C5350EA0D
:10018000013518BF52EA033541F4801143F480135E
:1001900038D0A0FB02CE4FF00005E1FB02E506F0EF
:1001A0000042E0FB03E54FF00006E1FB03569CF044
:1001B000000F18BF4EF0010EA4F1FF04B6F5007F4A
:1001C00064F5407404D25FEA4E0E6D4146EB0606BC
:1001D00042EAC62141EA55514FEAC52040EA5E5045
:1001E0004FEACE2EB4F1FD0C88BFBCF5E06F1ED8EF
:1001F000BEF1004F08BF5FEA500E50F1000041EB26
:10020000045170BD06F0004646EA010140EA0200D2
:1002100081EA0301B4EB5C04C2BFD4EB0C0541EAF4
:10022000045170BD41F480114FF0000E013C00F309
:10023000AB8014F1360FDEBF002001F0004170BD2D
:10024000C4F10004203C35DA0C341BDC04F1140446
:10025000C4F1200500FA05F320FA04F001FA05F2D2
:1002600040EA020001F0004221F0004110EBD3709F
:1002700021FA04F642EB06015EEA430E08BF20EACB
:10028000D37070BDC4F10C04C4F1200500FA04F36E
:1002900020FA05F001FA04F240EA020001F0004100
:1002A00010EBD37041F100015EEA430E08BF20EA73
:1002B000D37070BDC4F1200500FA05F24EEA020EBB
:1002C00020FA04F301FA05F243EA020321FA04F0EA
:1002D00001F0004121FA04F220EA020000EBD370A1
:1002E0005EEA430E08BF20EAD37070BD94F0000FA1
:1002F0000FD101F00046400041EB010111F4801FD5
:1003000008BF013CF7D041EA060195F0000F18BF85
:10031000704703F00046520043EB030313F4801FC1
:1003200008BF013DF7D043EA0603704794EA0C0F7B
:100330000CEA135518BF95EA0C0F0CD050EA410691
:1003400018BF52EA4306D1D181EA030101F000410E
:100350004FF0000070BD50EA410606BF1046194636
:1003600052EA430619D094EA0C0F02D150EA013642
:1003700013D195EA0C0F05D152EA03361CBF104683
:1003800019460AD181EA030101F0004141F0FE4122
:1003900041F470014FF0000070BD41F0FE4141F4A6
:1003A000780170BD81F0004102E000BF83F000439E
:1003B00030B54FEA41044FEA430594EA050F08BF00
:1003C00090EA020F1FBF54EA000C55EA020C7FEAC4
:1003D000645C7FEA655C00F0E2804FEA5454D4EB41
:1003E0005555B8BF6D420CDD2C4480EA020281EA0B
:1003F000030382EA000083EA010180EA020281EA43
:100400000303362D88BF30BD11F0004F4FEA013194
:100410004FF4801C4CEA113102D0404261EB4101A3
:1004200013F0004F4FEA03334CEA133302D0524229
:1004300063EB430394EA050F00F0A780A4F10104E5
:10044000D5F1200E0DDB02FA0EFC22FA05F280181F
:1004500041F1000103FA0EF2801843FA05F3594105
:100460000EE0A5F120050EF1200E012A03FA0EFC84
:1004700028BF4CF0020C43FA05F3C01851EBE371AE
:1004800001F0004507D54FF0000EDCF1000C7EEBCB
:1004900000006EEB0101B1F5801F1BD3B1F5001F09
:1004A0000CD349085FEA30004FEA3C0C04F1010428
:1004B0004FEA445212F5800F80F09A80BCF1004F51
:1004C00008BF5FEA500C50F1000041EB045141EAD3
:1004D000050130BD5FEA4C0C404141EB0101013C9C
:1004E00028BFB1F5801FE9D291F0000F04BF01468B
:1004F0000020B1FA81F308BF2033A3F10B03B3F15D
:1005000020020CDA0C3208DD02F1140CC2F10C02EC
:1005100001FA0CF021FA02F10CE002F11402D8BF4A
:10052000C2F1200C01FA02F120FA0CFCDCBF41EA16
:100530000C019040E41AA2BF01EB0451294330BDE5
:100540006FEA04041F3C1CDA0C340EDC04F11404C2
:10055000C4F1200220FA04F001FA02F340EA030099
:1005600021FA04F345EA030130BDC4F10C04C4F1DF
:10057000200220FA02F001FA04F340EA03002946BF
:1005800030BD21FA04F0294630BD94F0000F83F409
:10059000801306BF81F480110134013D4EE77FEAEC
:1005A000645C18BF7FEA655C29D094EA050F08BF38
:1005B00090EA020F05D054EA000C04BF1946104619
:1005C00030BD91EA030F1EBF0021002030BD5FEA5D
:1005D000545C05D14000494128BF41F0004130BD85
:1005E00014F580043CBF01F5801130BD01F00045D9
:1005F00045F0FE4141F470014FF0000030BD7FEA4C
:10060000645C1ABF194610467FEA655C1CBF0B4646
:10061000024650EA013406BF52EA033591EA030F5D
:1006200041F4002130BD00BF90F0000F04BF002155
:10063000704730B54FF4806404F132044FF0000588
:100640004FF0000150E700BF90F0000F04BF002101
:10065000704730B54FF4806404F1320410F0004567
:1006600048BF40424FF000013EE700BF42004FEA62
:10067000E2014FEA31014FEA02701FBF12F07F43DF
:1006800093F07F4F81F06051704732F07F4208BF96
:10069000704793F07F4F04BF41F40021704730B59D
:1006A0004FF4607401F0004521F000411CE700BFE9
:1006B00050EA010208BF704730B54FF000050AE06C
:1006C00050EA010208BF704730B511F0004502D56D
:1006D000404261EB41014FF4806404F132045FEA6F
:1006E000915C3FF4D8AE4FF003025FEADC0C18BF18
:1006F00003325FEADC0C18BF033202EBDC02C2F10A
:10070000200300FA03FC20FA02F001FA03FE40EA9B
:100710000E0021FA02F11444BDE600BF4FF0FF3C89
:1007200006E000BF4FF0010C02E000BF4FF0010CEB
:100730004DF804CD4FEA410C7FEA6C5C4FEA430C64
:1007400018BF7FEA6C5C1BD001B050EA410C0CBFB3
:1007500052EA430C91EA030F02BF90EA020F002015
:10076000704710F1000F91EA030F58BF994208BF7C
:1007700090422CBFD8176FEAE37040F00100704739
:100780004FEA410C7FEA6C5C02D150EA013C07D190
:100790004FEA430C7FEA6C5CD6D152EA033CD3D0DB
:1007A0005DF8040B704700BF8446104662468C46D5
:1007B0001946634600E000BF01B5FFF7B7FF002808
:1007C00048BF10F1000F01BD4DF808EDFFF7F4FF31
:1007D0000CBF012000205DF808FB00BF4DF808EDBC
:1007E000FFF7EAFF34BF012000205DF808FB00BFDF
:1007F0004DF808EDFFF7E0FF94BF012000205DF801
:1008000008FB00BF4DF808EDFFF7CEFF94BF0120B5
:1008100000205DF808FB00BF4DF808EDFFF7C4FFAE
:1008200034BF012000205DF808FB00BF4FEA410201
:1008300012F5001215D211D56FF47873B3EB625232
:1008400012D94FEAC12343F0004343EA505311F059
:10085000004F23FA02F018BF404270474FF00000EB
:10086000704750EA013005D111F0004008BF6FF029
:10087000004070474FF00000704700BF80B584B063
:1008800000AF78600023FB600CE00F4AFB6832F990
:1008900013309BB2022219460C4801F09AFDFB6806
:1008A0000133FB60FB68032BEFDD074A7B6832F9FD
:1008B00013309BB200221946044801F08AFD00BFA4
:1008C0001037BD4680BD00BF10000020000C014065
:1008D00080B582B000AF78607B68092B00F29C8203
:1008E00001A252F823F000BF110900089109000885
:1008F000110A0008910A0008110B0008990B000862
:10090000190C0008990C0008190D0008990D000831
:100910009F4BB3F900309BB2002219469D4801F06D
:1009200058FD9B4BB3F902309BB2002219469948FF
:1009300001F04FFD964BB3F904309BB200221946EB
:10094000944801F046FD924BB3F906309BB2002269
:100950001946904801F03DFD8D4BB3F908309BB22C
:10096000002219468B4801F034FD894BB3F90A3057
:100970009BB200221946874801F02BFD844BB3F946
:100980000C309BB202221946824801F022FD44E25B
:100990007F4BB3F900309BB2022219467D4801F02B
:1009A00018FD7B4BB3F902309BB2002219467948FF
:1009B00001F00FFD764BB3F904309BB200221946CB
:1009C000744801F006FD724BB3F906309BB2022267
:1009D0001946704801F0FDFC6D4BB3F908309BB22D
:1009E000022219466B4801F0F4FC694BB3F90A3056
:1009F0009BB202221946674801F0EBFC644BB3F945
:100A00000C309BB202221946624801F0E2FC04E27B
:100A10005F4BB3F900309BB2002219465D4801F0EC
:100A2000D8FC5B4BB3F902309BB2002219465948FF
:100A300001F0CFFC564BB3F904309BB202221946A9
:100A4000544801F0C6FC524BB3F906309BB2002269
:100A50001946504801F0BDFC4D4BB3F908309BB22C
:100A6000002219464B4801F0B4FC494BB3F90A3057
:100A70009BB202221946474801F0ABFC444BB3F944
:100A80000C309BB200221946424801F0A2FCC4E19E
:100A90003F4BB3F900309BB2002219463D4801F0AC
:100AA00098FC3B4BB3F902309BB2002219463948FF
:100AB00001F08FFC364BB3F904309BB2002219468B
:100AC000344801F086FC324BB3F906309BB2002269
:100AD0001946304801F07DFC2D4BB3F908309BB22C
:100AE000022219462B4801F074FC294BB3F90A3055
:100AF0009BB202221946274801F06BFC244BB3F944
:100B00000C309BB200221946224801F062FC84E1BD
:100B10001F4BB3F900309BB2022219461D4801F069
:100B200058FC1B4BB3F902309BB2002219461948FE
:100B300001F04FFC164BB3F904309BB2002219466A
:100B4000144801F046FC124BB3F906309BB2022266
:100B50001946104801F03DFC0D4BB3F908309BB22B
:100B6000022219460B4801F034FC094BB3F90A3054
:100B70009BB200221946074801F02BFC044BB3F945
:100B80000C309BB200221946024801F022FC44E1DD
:100B90000000002000080140A24BB3F900309BB2D6
:100BA00000221946A04801F014FC9E4BB3F9023014
:100BB0009BB2022219469C4801F00BFC994BB3F9F9
:100BC00004309BB200221946974801F002FC954B75
:100BD000B3F906309BB200221946934801F0F9FBA5
:100BE000904BB3F908309BB2022219468E4801F0AF
:100BF000F0FB8C4BB3F90A309BB2002219468A48AD
:100C000001F0E7FB874BB3F90C309BB20022194689
:100C1000854801F0DEFB00E1824BB3F900309BB266
:100C200000221946804801F0D4FB7E4BB3F9023014
:100C30009BB2022219467C4801F0CBFB794BB3F9F9
:100C400004309BB200221946774801F0C2FB754B75
:100C5000B3F906309BB200221946734801F0B9FB84
:100C6000704BB3F908309BB2002219466E4801F070
:100C7000B0FB6C4BB3F90A309BB2002219466A48AC
:100C800001F0A7FB674BB3F90C309BB20022194669
:100C9000654801F09EFBC0E0624BB3F900309BB2A7
:100CA00000221946604801F094FB5E4BB3F9023014
:100CB0009BB2002219465C4801F08BFB594BB3F9FB
:100CC00004309BB200221946574801F082FB554B75
:100CD000B3F906309BB202221946534801F079FB62
:100CE000504BB3F908309BB2022219464E4801F02E
:100CF00070FB4C4BB3F90A309BB2022219464A48AA
:100D000001F067FB474BB3F90C309BB20222194646
:100D1000454801F05EFB80E0424BB3F900309BB2E6
:100D200000221946404801F054FB3E4BB3F9023013
:100D30009BB2002219463C4801F04BFB394BB3F9FA
:100D400004309BB200221946374801F042FB354B74
:100D5000B3F906309BB200221946334801F039FB43
:100D6000304BB3F908309BB2002219462E4801F0EF
:100D700030FB2C4BB3F90A309BB2002219462A48AB
:100D800001F027FB274BB3F90C309BB20022194628
:100D9000254801F01EFB40E0224BB3F900309BB226
:100DA00000221946204801F014FB1E4BB3F9023013
:100DB0009BB2002219461C4801F00BFB194BB3F9FA
:100DC00004309BB200221946174801F002FB154B74
:100DD000B3F906309BB200221946134801F0F9FA24
:100DE000104BB3F908309BB2022219460E4801F0AD
:100DF000F0FA0C4BB3F90A309BB2002219460A48AC
:100E000001F0E7FA074BB3F90C309BB20022194608
:100E1000054801F0DEFA00E000BF00BF0837BD461C
:100E200080BD00BF000000200008014080B582B0F6
:100E300000AF78603960294BDB6A012B41D17B68B8
:100E4000274A82FB03129210DB17D31A254A13603C
:100E50007968234B83FB01239A10CB17D21A1346D0
:100E60009B0013445B00CA1A1E4B5A603B681C4A25
:100E700082FB03129210DB17D31A1A4A9360396867
:100E8000174B83FB01239A10CB17D21A13469B00F2
:100E900013445B00CA1A134BDA60134B1B6801330F
:100EA0005A4203F0030302F0030258BF53420E4AB2
:100EB0001360032000F0F6FE0B4B1B681846FFF78B
:100EC000DDFC094B1B68074A52F823301846FFF730
:100ED000FFFC00BF0837BD4680BD00BF24010020D5
:100EE00067666666600000207000002080B483B0F2
:100EF00000AF78607B68022B05DD7B68002B02DA8F
:100F00004FF0FF3317E00E497A6813465B00134435
:100F1000DB000B4414331B68012B0BD108497A68A2
:100F200013465B001344DB000B44143300221A60A9
:100F3000012300E0002318460C37BD4680BC7047F3
:100F40007400002080B500AF0020FFF7CFFF0346FC
:100F5000184680BD80B500AF0120FFF7C7FF0346EC
:100F6000184680BD80B500AF0220FFF7BFFF0346E3
:100F7000184680BD80B582B000AF00237B60E4E0FE
:100F800076497A6813465B001344DB000B44043354
:100F9000196872487A6813465B001344DB00034407
:100FA000083319606D497A6813465B001344DB000F
:100FB0000B44196869487A6813465B001344DB00E8
:100FC000034404331960664A7B6832F913309BB2DC
:100FD0001946644801F0E6F9034618465F497A6805
:100FE00013465B001344DB000B4418605B497A68CE
:100FF00013465B001344DB000B44196857487A68BA
:1010000013465B001344DB00034404331B6899421E
:1010100040F0988051497A6813465B001344DB0026
:101020000B44043319684D487A6813465B00134437
:10103000DB00034408331B68994240F08380474932
:101040007A6813465B001344DB000B4408331968CD
:1010500042487A6813465B001344DB0003440C33B8
:101060001B68994231D03D497A6813465B001344AE
:10107000DB000B440833196838487A6813465B0074
:101080001344DB0003440C33196034497A68134677
:101090005B001344DB000B440C331B68002B51D165
:1010A0002E497A6813465B001344DB000B4410336F
:1010B00032221A6029497A6813465B001344DB0028
:1010C0000B44143301221A603CE024497A68134629
:1010D0005B001344DB000B4410331B68591E1F4890
:1010E0007A6813465B001344DB0003441033196035
:1010F0001A497A6813465B001344DB000B44103333
:101100001B68002B1EDC15497A6813465B001344EC
:10111000DB000B44103332221A6010497A68134600
:101120005B001344DB000B440C331B68002B09D11C
:101130000A497A6813465B001344DB000B441433FE
:1011400001221A607B6801337B607B68022B7FF78A
:1011500017AF00BF00BF0837BD4680BD7400002038
:1011600018000020000C014080B500AFFFF7EAFE38
:101170000346002B05D0204B02221A6000F038F9FC
:1011800039E01E4B5B69012B0CD11D4B1B68013BE9
:101190001B4A13601B4B1B68013B1A4A136001205A
:1011A00000F080FD154B9B68012B1CD1164B1B6872
:1011B000032B17D801A252F823F000BFCD1100086D
:1011C000D3110008D9110008DF11000800F078F8E9
:1011D00009E000F0A5F806E000F0DAF803E000F01E
:1011E00037F800E000BF064B1B68064A126811463C
:1011F0001846FFF71BFE80BDD80000202401002008
:10120000C0000020C4000020BC00002080B500AF5A
:101210000E4B1B68032B16D801A252F823F000BF17
:1012200031120008371200083D120008431200086E
:1012300000F00EF808E000F043F805E000F070F868
:1012400002E000F0A5F800BF00BF80BDBC00002098
:1012500080B500AF002000F075FA032000F072FAAC
:10126000012000F085FA022000F082FA042000F04C
:101270007FFA052000F07CFA0C4B00221A600C4B20
:101280001B684FF47A7202FB03F31946002000F04A
:10129000D1FC084B1B68084A1360054B1B68074AC2
:1012A0001360012000F0FEFC00BF80BDBC000020E8
:1012B0002400002020000020C0000020C4000020E6
:1012C00080B500AF002000F03DFA052000F03AFAAA
:1012D000012000F04DFA022000F04AFA042000F04C
:1012E00047FA032000F044FA0A4B01221A600A4B25
:1012F0001B684FF47A7202FB03F31946002000F0DA
:1013000099FC054B1B68054A1360012000F0CAFCDC
:1013100000BF80BDBC00002028000020C4000020C9
:1013200080B500AF022000F00DFA012000F00AFAAB
:10133000002000F01DFA032000F01AFA042000F04B
:1013400017FA052000F014FA0C4B02221A600C4B1D
:101350001B684FF47A7202FB03F31946002000F079
:1013600069FC074B1B68074A1360074B1B68074A59
:101370001360012000F096FC00BF80BDBC0000207F
:1013800024000020C000002020000020C400002015
:1013900080B500AF012000F0D5F9042000F0D2F9AB
:1013A000002000F0E5F9022000F0E2F9052000F04D
:1013B000DFF9032000F0DCF90A4B03221A600A4B24
:1013C0001B684FF47A7202FB03F31946002000F009
:1013D00031FC054B1B68054A1360012000F062FCDC
:1013E00000BF80BDBC00002028000020C0000020FD
:1013F00080B500AF104B05221A600F4B1B681846D2
:1014000000F0E2F943F69821002000F013FC4FF4BD
:101410007A71012000F00EFC084B1B68084A13602B
:10142000084B1B68084A1360084B1B68084A136086
:10143000FFF790FD00BF80BDD400002020000020F9
:10144000C800002024000020CC000020280000203C
:10145000D000002000000000B0B500AF9C4B9B689E
:10146000012B05D19B4B01221A60FFF7CFFE2AE129
:10147000FFF778FD0346002B00F09280954B012288
:101480001A60954B1B68052B07D0052B00F3828053
:10149000032B67D0042B71D07CE0904B1A68904BE3
:1014A0001B689A4223DA8D4B1B688D4A13608C4B64
:1014B0001B681846FFF7C8F883A3D3E90023FEF79B
:1014C00047FE02460B461046194601F099FF0246B8
:1014D0000B4610461946FFF7A9F90346814A1360E7
:1014E0007F4B1A687F4B1B68D31A7F4A13607B4B74
:1014F0001A687B4B1B689A424EDD7A4B1B68184674
:10150000FFF7A2F804460D46744B1A68744B1B682B
:10151000D31A1846FFF798F86BA3D3E90023FEF718
:1015200017FE02460B461046194601F069FF0246B7
:101530000B4620462946FEF73BFF02460B46104667
:101540001946FFF773F90346664A1360634B1A683E
:10155000644B1B68D31A644A1360604B1B68604A73
:10156000136019E0614B1B685E4A13605D4B1A689B
:101570005D4B1B6813445A4A13600EE05C4B1B68BA
:10158000594A1360574B1A68574B1B681344544A07
:10159000136002E000BF00E000BFFFF737FE92E0FB
:1015A000FFF7D0FC0346002B1FD04B4B1B68052BCD
:1015B00006D0052B12DC032B06D0042B08D00DE03F
:1015C000454B03221A600AE0434B04221A6006E0EE
:1015D000404B01221A60FFF719FE74E000BF3E4B3A
:1015E0001B68184600F0F0F86DE0FFF7B3FC034607
:1015F000002B3BD0384B1B68052B06D0052B34DC69
:10160000032B12D0042B20D02FE0344B1B685A1C24
:10161000384B83FB02135911D317CB1A642101FBFA
:1016200003F3D31A2D4A136020E0304B1B685A1C79
:10163000304B83FB02135911D317CB1A642101FBE2
:1016400003F3D31A294A136010E0294B1B685A1C74
:10165000284B83FB02135911D317CB1A642101FBCA
:1016600003F3D31A224A136000E000BF184B5B69F2
:10167000012B07D1012000F015FB174B1B68184602
:1016800000F0F1F8144B1B68052B06D0052B19DC74
:10169000032B09D0042B0ED014E0104B1B68194605
:1016A0000120FFF7C3FB0EE0104B1B681946022018
:1016B000FFF7BCFB07E00E4B1B6819460320FFF742
:1016C000B5FB00E000BFB0BD333333333333E33F0A
:1016D00024010020D8000020D4000020C8000020F1
:1016E000200000202400002028000020CC00002042
:1016F000D00000201F85EB5180B500AF104B1B6858
:10170000022B18D0022B18DC002B02D0012B0FD09B
:1017100013E00B4B01221A603221032000F08AFAF9
:101720004FF47A71012000F085FAFFF791FD05E092
:10173000FFF71AFD02E0FFF78FFE00BF00BF80BD7C
:10174000D800002080B582B000AF7860064A7B6880
:1017500032F913309BB202221946044800F039FED8
:1017600000BF0837BD4680BD2C000020000C0140A2
:1017700080B582B000AF7860064A7B6832F91330DA
:101780009BB200221946044800F023FE00BF083730
:10179000BD4680BD2C000020000C014080B582B009
:1017A00000AF7860064A7B6832F913309BB2194665
:1017B000044800F026FE00BF0837BD4680BD00BFCC
:1017C0002C000020000C014080B582B000AF786092
:1017D0007B68052B09D07B68052B3FDC7B68032BDE
:1017E00016D07B68042B26D038E00020FFF7AAFF34
:1017F0000120FFF7A7FF0220FFF7BAFF0320FFF742
:10180000B7FF0420FFF7B4FF0520FFF7B1FF26E084
:101810000220FFF797FF0320FFF794FF0020FFF758
:10182000A7FF0120FFF7A4FF0420FFF7A1FF052079
:10183000FFF79EFF13E00420FFF784FF0520FFF76A
:1018400081FF0020FFF794FF0120FFF791FF0220A6
:10185000FFF78EFF0320FFF78BFF00E000BF00BF04
:101860000837BD4680BD80B582B000AF78607B6828
:10187000052B09D07B68052B1BDC7B68032B0AD06A
:101880007B68042B0ED014E00020FFF787FF0120B7
:10189000FFF784FF0EE00220FFF780FF0320FFF731
:1018A0007DFF07E00420FFF779FF0520FFF776FFB3
:1018B00000E000BF00BF0837BD4680BD80B500AF67
:1018C00000F084FA00F00CF800F092F800F044F810
:1018D000024801F0DDF9FFF70FFFFCE7DC00002014
:1018E00080B590B000AF07F11803282200211846F8
:1018F00001F05AFD3B1D00221A605A609A60DA60BE
:101900001A610223BB610123BB621023FB62002327
:101910007B6307F11803184600F08CFD0346002B8B
:1019200001D000F0EFF80F237B600023BB600023A1
:10193000FB6000233B6100237B613B1D00211846B7
:1019400000F0FAFF0346002B01D000F0DBF800BFE7
:101950004037BD4680BD000080B586B000AF07F1BE
:10196000080300221A605A609A60DA603B4600223F
:101970001A605A601D4B4FF080421A601B4B41F6B3
:101980003F725A60194B00229A60184B0922DA60A4
:10199000164B00221A61154B00229A61134801F080
:1019A00027F90346002B01D000F0ACF84FF4805328
:1019B000BB6007F1080319460C4801F0A5FA03467D
:1019C000002B01D000F09EF800233B6000237B60D9
:1019D0003B461946054801F07DFC0346002B01D02B
:1019E00000F090F800BF1837BD4680BDDC00002035
:1019F00080B588B000AF07F1100300221A605A606A
:101A00009A60DA60354B9B69344A43F01003936166
:101A1000324B9B6903F01003FB60FB682F4B9B6903
:101A20002E4A43F0040393612C4B9B6903F004039B
:101A3000BB60BB68294B9B69284A43F0080393614C
:101A4000264B9B6903F008037B607B6800224FF6FE
:101A50002061234800F0BDFC002241F6F8712148C6
:101A600000F0B7FC4FF400533B6100237B6101237E
:101A7000BB6107F1100319461B4800F017FB4FF636
:101A800020633B6101237B610023BB610223FB6177
:101A900007F110031946124800F008FB07233B61C9
:101AA00000237B610123BB6107F1100319460D4838
:101AB00000F0FCFA41F6F8733B6101237B610023DF
:101AC000BB610223FB6107F110031946054800F0D2
:101AD000EDFA00BF2037BD4680BD00BF00100240B8
:101AE00000080140000C01400010014080B582B0A8
:101AF00000AF7860FFF73EFA00F0FAF800BF083751
:101B0000BD4680BD80B400AF72B600BF00BFFDE728
:101B100080B485B000AF154B9B69144A43F00103B4
:101B20009361124B9B6903F00103BB60BB680F4BD1
:101B3000DB690E4A43F08053D3610C4BDB6903F041
:101B400080537B607B680A4B5B68FB60FB6823F01B
:101B5000E063FB60FB6843F08063FB60044AFB6862
:101B6000536000BF1437BD4680BC70470010024070
:101B70000000014080B584B000AF78607B681B68CE
:101B8000B3F1804F13D10C4BDB690B4A43F00103D7
:101B9000D361094BDB6903F00103FB60FB680022A2
:101BA00000211C2000F04BFA1C2000F064FA00BF5A
:101BB0001037BD4680BD00BF0010024080B400AFAA
:101BC00000BFFDE780B400AF00BFFDE780B400AF09
:101BD00000BFFDE780B400AF00BFFDE780B400AFF9
:101BE00000BFFDE780B400AF00BFBD4680BC7047BA
:101BF00080B400AF00BFBD4680BC704780B400AF6A
:101C000000BFBD4680BC704780B500AF00F024F92E
:101C100000BF80BD80B500AF024801F085F800BF6D
:101C200080BD00BFDC00002080B400AF00BFBD4617
:101C300080BC704780B483B000AF786039603B6887
:101C4000164A82FB03129210DB17D11A14487A68E5
:101C500013465B0013449B00034419603B680F4A22
:101C600082FB03129210DB17D11A0D487A681346D3
:101C70005B0013449B0003440433196008497A68ED
:101C800013465B0013449B000B44083300221A6088
:101C900000BF0C37BD4680BC704700BF67666666F4
:101CA0002401002080B483B000AF78600F497A68C7
:101CB00013465B0013449B000B4419680B487A6879
:101CC00013465B0013449B00034404331960074927
:101CD0007A6813465B0013449B000B4408330022D0
:101CE0001A6000BF0C37BD4680BC7047240100203D
:101CF00080B483B000AF00237B6035E01F497A6871
:101D000013465B0013449B000B4404331B68002BF9
:101D100027DD1A497A6813465B0013449B000B4485
:101D200004331B68591E15487A6813465B00134438
:101D30009B0003440433196010497A6813465B0022
:101D400013449B000B4404331B68002B09DC0B4934
:101D50007A6813465B0013449B000B44083301224E
:101D60001A607B6801337B607B68092BC6DD00BF8E
:101D700000BF0C37BD4680BC704700BF2401002067
:101D8000FFF752FF0B480C490C4A002302E0D458DD
:101D9000C4500433C4188C42F9D3094A094C0023B7
:101DA00001E013600432A242FBD301F005FBFFF710
:101DB00085FD704700000020440000203C350008ED
:101DC00044000020A0010020FEE7000080B500AF25
:101DD000084B1B68074A43F010031360032000F010
:101DE00023F90F2000F008F8FFF792FE00231846B1
:101DF00080BD00BF0020024080B582B000AF786097
:101E0000124B1A68124B1B7819464FF47A73B3FBC6
:101E1000F1F3B2FBF3F3184600F03BF90346002B55
:101E200001D001230EE07B680F2B0AD800227968CD
:101E30004FF0FF3000F003F9064A7B68136000237F
:101E400000E0012318460837BD4680BD3800002059
:101E5000400000203C00002080B400AF054B1B7800
:101E60001A46054B1B681344034A136000BFBD4666
:101E700080BC7047400000209C01002080B400AF6F
:101E8000024B1B681846BD4680BC70479C01002071
:101E900080B485B000AF78607B6803F00703FB6017
:101EA0000C4BDB68BB60BA684FF6FF031340BB60A6
:101EB000FB681A02BB68134343F0BF6343F400336B
:101EC000BB60044ABB68D36000BF1437BD4680BC0A
:101ED000704700BF00ED00E080B400AF044BDB684A
:101EE0001B0A03F007031846BD4680BC704700BFBD
:101EF00000ED00E080B483B000AF0346FB7197F9BA
:101F00000730002B0BDBFB7903F01F02064997F922
:101F100007305B09012000FA02F241F8232000BFDC
:101F20000C37BD4680BC704700E100E080B483B050
:101F300000AF03463960FB7197F90730002B0ADBCD
:101F40003B68DAB20C4997F907301201D2B20B4460
:101F500083F800230AE03B68DAB20849FB7903F012
:101F60000F03043B1201D2B20B441A7600BF0C37A8
:101F7000BD4680BC704700BF00E100E000ED00E01E
:101F800080B489B000AFF860B9607A60FB6803F094
:101F90000703FB61FB69C3F10703042B28BF04237C
:101FA000BB61FB690433062B02D9FB69033B00E0EC
:101FB00000237B614FF0FF32BB6902FA03F3DA437F
:101FC000BB681A407B699A404FF0FF317B6901FA88
:101FD00003F3D9437B680B40134318462437BD46AF
:101FE00080BC704780B582B000AF78607B68013BF1
:101FF000B3F1807F01D301230FE00A4A7B68013BE4
:1020000053600F214FF0FF30FFF790FF054B002288
:102010009A60044B07221A60002318460837BD4611
:1020200080BD00BF10E000E080B582B000AF7860F6
:102030007868FFF72DFF00BF0837BD4680BD80B52B
:1020400086B000AF0346B9607A60FB7300237B6102
:10205000FFF742FF78617A68B9687869FFF790FF07
:10206000024697F90F3011461846FFF75FFF00BF91
:102070001837BD4680BD80B582B000AF0346FB7106
:1020800097F907301846FFF735FF00BF0837BD4600
:1020900080BD80B582B000AF78607868FFF7A2FF9E
:1020A000034618460837BD4680BD000080B48BB09B
:1020B00000AF7860396000237B6200233B6261E1FE
:1020C00001227B6A02FA03F3FB613B681B68FA6931
:1020D0001340BB61BA69FB699A4240F050813B688A
:1020E0005B68974A93425ED0954A934275D8954A69
:1020F000934258D0934A93426FD8934A934252D016
:10210000914A934269D8914A93424CD08F4A934264
:1021100063D88F4A934246D08D4A93425DD8122BA2
:102120002AD8122B59D801A252F823F0A72100086F
:102130008121000893210008D5210008DB21000837
:10214000DB210008DB210008DB210008DB2100087F
:10215000DB210008DB210008DB210008DB2100086F
:10216000DB210008DB210008DB210008DB2100085F
:10217000892100089D210008764A934213D02CE063
:102180003B68DB683B6229E03B68DB6804333B6209
:1021900024E03B68DB6808333B621FE03B68DB6898
:1021A0000C333B621AE03B689B68002B02D104238E
:1021B0003B6213E03B689B68012B05D108233B621F
:1021C0007B68FA691A6109E008233B627B68FA6957
:1021D0005A6103E000233B6200E000BFBB69FF2BB4
:1021E00001D87B6801E07B6804337B61BB69FF2B0E
:1021F00002D87B6A9B0002E07B6A083B9B003B6144
:102200007B691A680F213B6901FA03F3DB431A402B
:10221000396A3B6901FA03F31A437B691A603B6828
:102220005B6803F08053002B00F0A9804A4B9B6948
:10223000494A43F001039361474B9B6903F0010353
:10224000BB60BB68454A7B6A9B08023352F8233067
:10225000FB607B6A03F003039B000F2202FA03F387
:10226000DB43FA681340FB607B683D4A93420DD024
:102270007B683C4A934207D07B683B4A934201D13A
:10228000022304E0032302E0012300E000237A6A32
:1022900002F0030292009340FA681343FB602F4957
:1022A0007B6A9B080233FA6841F823203B685B682D
:1022B00003F48013002B06D02C4B9A682B49BB6982
:1022C00013438B6006E0294B9A68BB69DB432749BF
:1022D00013408B603B685B6803F40013002B06D04F
:1022E000224BDA682149BB691343CB6006E01F4BE0
:1022F000DA68BB69DB431D491340CB603B685B6810
:1023000003F40033002B06D0184B5A681749BB69F9
:1023100013434B6006E0154B5A68BB69DB43134916
:1023200013404B603B685B6803F48033002B1FD085
:102330000E4B1A680D49BB6913430B601FE000BFC9
:1023400000003210000031100000221000002110A7
:1023500000001210000011100010024000000140A7
:1023600000080140000C0140001001400004014041
:102370000B4B1A68BB69DB43094913400B607B6A4E
:1023800001337B623B681A687B6A22FA03F3002BF5
:102390007FF496AE00BF00BF2C37BD4680BC7047AF
:1023A0000004014080B485B000AF78600B467B80AC
:1023B0007B689A687B881340002B02D00123FB7353
:1023C00001E00023FB73FB7B18461437BD4680BC3D
:1023D000704780B483B000AF78600B467B801346B3
:1023E0007B707B78002B03D07A887B681A6103E0CE
:1023F0007B881A047B681A6100BF0C37BD4680BC1D
:10240000704780B485B000AF78600B467B807B68F6
:10241000DB68FB607A88FB6813401A04FB68D943C9
:102420007B880B401A437B681A6100BF1437BD4696
:1024300080BC704780B586B000AF78607B68002BA9
:1024400001D1012372E27B681B6803F00103002BBA
:1024500000F08780924B5B6803F00C03042B0CD0D8
:102460008F4B5B6803F00C03082B12D18C4B5B681D
:1024700003F48033B3F5803F0BD1894B1B6803F421
:102480000033002B6CD07B685B68002B68D1012384
:102490004CE27B685B68B3F5803F06D1804B1B68DC
:1024A0007F4A43F4803313602EE07B685B68002B27
:1024B0000CD17B4B1B687A4A23F480331360784B32
:1024C0001B68774A23F4802313601DE07B685B68F8
:1024D000B3F5A02F0CD1724B1B68714A43F48023D3
:1024E00013606F4B1B686E4A43F4803313600BE03C
:1024F0006B4B1B686A4A23F480331360684B1B687C
:10250000674A23F4802313607B685B68002B13D039
:10251000FFF7B4FC386108E0FFF7B0FC02463B6906
:10252000D31A642B01D9032300E25D4B1B6803F42B
:102530000033002BF0D014E0FFF7A0FC386108E076
:10254000FFF79CFC02463B69D31A642B01D9032395
:10255000ECE1534B1B6803F40033002BF0D100E097
:1025600000BF7B681B6803F00203002B63D04C4B59
:102570005B6803F00C03002B0BD0494B5B6803F046
:102580000C03082B1CD1464B5B6803F48033002BF3
:1025900016D1434B1B6803F00203002B05D07B6868
:1025A0001B69012B01D00123C0E13D4B1B6823F0C7
:1025B000F8027B685B69DB00394913430B603AE042
:1025C0007B681B69002B20D0364B01221A60FFF775
:1025D00055FC386108E0FFF751FC02463B69D31A0D
:1025E000022B01D90323A1E12D4B1B6803F0020349
:1025F000002BF0D02A4B1B6823F0F8027B685B6944
:10260000DB00274913430B6015E0264B00221A60BC
:10261000FFF734FC386108E0FFF730FC02463B6905
:10262000D31A022B01D9032380E11D4B1B6803F051
:102630000203002BF0D17B681B6803F00803002B1A
:102640003AD07B689B69002B19D0174B01221A6086
:10265000FFF714FC386108E0FFF710FC02463B6905
:10266000D31A022B01D9032360E10D4B5B6A03F0FF
:102670000203002BF0D0012000F09CFA1CE00A4B72
:1026800000221A60FFF7FAFB38610FE0FFF7F6FB54
:1026900002463B69D31A022B08D9032346E100BF47
:1026A000001002400000424280044242924B5B6AAA
:1026B00003F00203002BE9D17B681B6803F00403DD
:1026C000002B00F0A6800023FB758B4BDB6903F029
:1026D0008053002B0DD1884BDB69874A43F0805330
:1026E000D361854BDB6903F08053BB60BB6801237A
:1026F000FB75824B1B6803F48073002B18D17F4B52
:102700001B687E4A43F480731360FFF7B7FB3861A0
:1027100008E0FFF7B3FB02463B69D31A642B01D9EB
:10272000032303E1754B1B6803F48073002BF0D087
:102730007B68DB68012B06D16F4B1B6A6E4A43F046
:10274000010313622DE07B68DB68002B0CD16A4B20
:102750001B6A694A23F001031362674B1B6A664ACE
:1027600023F0040313621CE07B68DB68052B0CD1AB
:10277000614B1B6A604A43F0040313625E4B1B6AA1
:102780005D4A43F0010313620BE05B4B1B6A5A4A3C
:1027900023F001031362584B1B6A574A23F00403CA
:1027A00013627B68DB68002B15D0FFF767FB38618D
:1027B0000AE0FFF763FB02463B69D31A41F2883215
:1027C000934201D90323B1E04B4B1B6A03F0020390
:1027D000002BEED014E0FFF751FB38610AE0FFF761
:1027E0004DFB02463B69D31A41F28832934201D92C
:1027F00003239BE0404B1B6A03F00203002BEED146
:10280000FB7D012B05D13C4BDB693B4A23F0805318
:10281000D3617B68DB69002B00F08780364B5B68F7
:1028200003F00C03082B61D07B68DB69022B46D1D7
:10283000334B00221A60FFF721FB386108E0FFF7F5
:102840001DFB02463B69D31A022B01D903236DE01D
:10285000294B1B6803F00073002BF0D17B681B6AC7
:10286000B3F5803F08D1244B5B6823F400327B68CA
:102870009B68214913434B601F4B5B6823F4741220
:102880007B68196A7B685B6A0B431B4913434B6087
:102890001B4B01221A60FFF7F1FA386108E0FFF7DD
:1028A000EDFA02463B69D31A022B01D903233DE01E
:1028B000114B1B6803F00073002BF0D035E0104B78
:1028C00000221A60FFF7DAFA386108E0FFF7D6FA5B
:1028D00002463B69D31A022B01D9032326E0064B9B
:1028E0001B6803F00073002BF0D11EE07B68DB69EE
:1028F000012B07D1012319E00010024000700040B5
:10290000600042420B4B5B68FB60FB6803F4803263
:102910007B681B6A9A4206D1FB6803F470127B68DD
:102920005B6A9A4201D0012300E000231846183761
:10293000BD4680BD0010024080B584B000AF786015
:1029400039607B68002B01D10123D0E06A4B1B6802
:1029500003F007033A689A4210D9674B1B6823F0CB
:10296000070265493B6813430B60634B1B6803F028
:1029700007033A689A4201D00123B8E07B681B68DC
:1029800003F00203002B20D07B681B6803F00403D4
:10299000002B05D0594B5B68584A43F4E063536001
:1029A0007B681B6803F00803002B05D0534B5B6862
:1029B000524A43F460535360504B5B6823F0F0027B
:1029C0007B689B684D4913434B607B681B6803F031
:1029D0000103002B40D07B685B68012B07D1474B7C
:1029E0001B6803F40033002B15D101237FE07B68C3
:1029F0005B68022B07D1414B1B6803F00073002B6F
:102A000009D1012373E03D4B1B6803F00203002B47
:102A100001D101236BE0394B5B6823F003027B6833
:102A20005B68364913434B60FFF728FAF8600AE009
:102A3000FFF724FA0246FB68D31A41F28832934228
:102A400001D9032353E02D4B5B6803F00C027B6834
:102A50005B689B009A42EBD1274B1B6803F007038E
:102A60003A689A4210D2244B1B6823F0070222498D
:102A70003B6813430B60204B1B6803F007033A6865
:102A80009A4201D0012332E07B681B6803F0040303
:102A9000002B08D0194B5B6823F4E0627B68DB688D
:102AA000164913434B607B681B6803F00803002B37
:102AB00009D0124B5B6823F460527B681B69DB0012
:102AC0000E4913434B6000F021F802460B4B5B6844
:102AD0001B0903F00F030A49CB5C22FA03F3094AEE
:102AE0001360094B1B681846FFF786F90023184648
:102AF0001037BD4680BD00BF0020024000100240DC
:102B000010350008380000203C00002080B487B059
:102B100000AF0023FB600023BB6000237B61002328
:102B20007B6000233B611E4B5B68FB60FB6803F02E
:102B30000C03042B02D0082B03D027E0194B3B6178
:102B400027E0FB689B0C03F00F03174AD35C7B6004
:102B5000FB6803F48033002B10D0114B5B685B0CD7
:102B600003F00103114AD35CBB607B680D4A03FB91
:102B700002F2BB68B2FBF3F37B6104E07B680C4AB2
:102B800002FB03F37B617B693B6102E0054B3B6128
:102B900000BF3B6918461C37BD4680BC704700BF6C
:102BA0000010024000127A0020350008303500087D
:102BB00000093D0080B485B000AF78600A4B1B6807
:102BC0000A4AA2FB03235B0A7A6802FB03F3FB6059
:102BD00000BFFB685A1EFA60002BF9D100BF00BF8E
:102BE0001437BD4680BC704738000020D34D6210BA
:102BF00080B582B000AF78607B68002B01D10123E3
:102C000041E07B6893F83D30DBB2002B06D17B6856
:102C1000002283F83C207868FEF7ACFF7B68022234
:102C200083F83D207B681A687B6804331946104698
:102C300000F056FA7B68012283F846207B68012267
:102C400083F83E207B68012283F83F207B680122C5
:102C500083F840207B68012283F841207B680122B1
:102C600083F842207B68012283F843207B6801229D
:102C700083F844207B68012283F845207B68012289
:102C800083F83D20002318460837BD4680BD00006C
:102C900080B485B000AF78607B6893F83D30DBB2DC
:102CA000012B01D0012335E07B68022283F83D200F
:102CB0007B681B68DA687B681B6842F00102DA6097
:102CC0007B681B68164A934209D07B681B68B3F186
:102CD000804F04D07B681B68124A934211D17B68F5
:102CE0001B689B6803F00703FB60FB68062B10D092
:102CF0007B681B681A687B681B6842F001021A60D7
:102D000007E07B681B681A687B681B6842F0010259
:102D10001A60002318461437BD4680BC704700BFB8
:102D2000002C01400004004080B584B000AF786002
:102D30007B681B68DB68FB607B681B681B69BB608A
:102D4000BB6803F00203002B20D0FB6803F00203F2
:102D5000002B1BD07B681B686FF002021A617B6836
:102D600001221A777B681B689B6903F00303002B21
:102D700003D0786800F098F905E0786800F08BF9E6
:102D8000786800F09AF97B6800221A77BB6803F034
:102D90000403002B20D0FB6803F00403002B1BD09E
:102DA0007B681B686FF004021A617B6802221A7745
:102DB0007B681B689B6903F44073002B03D0786821
:102DC00000F072F905E0786800F065F9786800F0C5
:102DD00074F97B6800221A77BB6803F00803002BA4
:102DE00020D0FB6803F00803002B1BD07B681B6816
:102DF0006FF008021A617B6804221A777B681B68EF
:102E0000DB6903F00303002B03D0786800F04CF972
:102E100005E0786800F03FF9786800F04EF97B68CB
:102E200000221A77BB6803F01003002B20D0FB6848
:102E300003F01003002B1BD07B681B686FF010029F
:102E40001A617B6808221A777B681B68DB6903F4C8
:102E50004073002B03D0786800F026F905E078680D
:102E600000F019F9786800F028F97B6800221A77D9
:102E7000BB6803F00103002B0CD0FB6803F00103D7
:102E8000002B07D07B681B686FF001021A6178681D
:102E9000FEF72CFEBB6803F08003002B0CD0FB6810
:102EA00003F08003002B07D07B681B686FF0800263
:102EB0001A61786800F06FFABB6803F04003002BDA
:102EC0000CD0FB6803F04003002B07D07B681B6825
:102ED0006FF040021A61786800F0F8F8BB6803F000
:102EE0002003002B0CD0FB6803F02003002B07D03D
:102EF0007B681B686FF020021A61786800F042FA64
:102F000000BF1037BD4680BD80B584B000AF78608B
:102F100039600023FB737B6893F83C30012B01D1AF
:102F20000223B4E07B68012283F83C207B68022204
:102F300083F83D207B681B689B68BB60BB6823F0FF
:102F40007703BB60BB6823F47F43BB607B681B686F
:102F5000BA689A603B681B68B3F5005F3ED0B3F572
:102F6000005F00F28780B3F5805F00F08680B3F5E4
:102F7000805F7FD8702B1AD0702B7BD8602B50D0FD
:102F8000602B77D8502B3CD0502B73D8402B58D087
:102F9000402B6FD8302B64D0302B6BD8202B60D0D7
:102FA000202B67D8002B5CD0102B5AD062E07B68B6
:102FB00018683B6899683B685A683B68DB6800F0B2
:102FC0006AF97B681B689B68BB60BB6843F077034A
:102FD000BB607B681B68BA689A604FE07B681868C2
:102FE0003B6899683B685A683B68DB6800F053F9B6
:102FF0007B681B689A687B681B6842F480429A6011
:103000003CE07B6818683B6859683B68DB681A4697
:1030100000F0CAF87B681B685021184600F021F9BF
:103020002CE07B6818683B6859683B68DB681A4687
:1030300000F0E8F87B681B686021184600F011F981
:103040001CE07B6818683B6859683B68DB681A4677
:1030500000F0AAF87B681B684021184600F001F9CF
:103060000CE07B681A683B681B681946104600F044
:10307000F8F803E00123FB7300E000BF7B68012246
:1030800083F83D207B68002283F83C20FB7B1846B8
:103090001037BD4680BD80B483B000AF786000BFFC
:1030A0000C37BD4680BC704780B483B000AF7860F9
:1030B00000BF0C37BD4680BC704780B483B000AF02
:1030C000786000BF0C37BD4680BC704780B483B0C9
:1030D00000AF786000BF0C37BD4680BC7047000071
:1030E00080B485B000AF786039607B681B68FB6096
:1030F0007B682B4A934207D07B68B3F1804F03D0A3
:103100007B68284A934208D1FB6823F07003FB6078
:103110003B685B68FA681343FB607B68204A934214
:1031200007D07B68B3F1804F03D07B681D4A934280
:1031300008D1FB6823F44073FB603B68DB68FA68E6
:103140001343FB60FB6823F080023B685B69134319
:10315000FB607B68FA681A603B689A687B68DA6291
:103160003B681A687B689A627B680D4A934203D178
:103170003B681A697B681A637B6801225A617B6825
:103180001B6903F00103002B05D07B681B6923F04A
:1031900001027B681A6100BF1437BD4680BC7047CE
:1031A000002C01400004004080B487B000AFF860FC
:1031B000B9607A60FB681B6A7B61FB681B6A23F05D
:1031C0000102FB681A62FB689B693B613B6923F063
:1031D000F0033B617B681B013A6913433B617B69E8
:1031E00023F00A037B617A69BB6813437B61FB6848
:1031F0003A699A61FB687A691A6200BF1C37BD465A
:1032000080BC704780B487B000AFF860B9607A6066
:10321000FB681B6A7B61FB681B6A23F01002FB687A
:103220001A62FB689B693B613B6923F470433B6115
:103230007B681B033A6913433B617B6923F0A0035E
:103240007B61BB681B017A6913437B61FB683A6948
:103250009A61FB687A691A6200BF1C37BD4680BC60
:10326000704780B485B000AF786039607B689B6838
:10327000FB60FB6823F07003FB603A68FB68134354
:1032800043F00703FB607B68FA689A6000BF14375D
:10329000BD4680BC704780B487B000AFF860B960AD
:1032A0007A603B60FB689B687B617B6923F47F43AA
:1032B0007B613B681A027B681A43BB6813437A69D7
:1032C00013437B61FB687A699A6000BF1C37BD4677
:1032D00080BC704780B485B000AF786039607B688F
:1032E00093F83C30012B01D1022341E07B6801229D
:1032F00083F83C207B68022283F83D207B681B68B2
:103300005B68FB607B681B689B68BB60FB6823F0A5
:103310007003FB603B681B68FA681343FB607B68C3
:103320001B68FA685A607B681B68144A934209D08C
:103330007B681B68B3F1804F04D07B681B68104A20
:1033400093420CD1BB6823F08003BB603B685B6891
:10335000BA681343BB607B681B68BA689A607B6875
:10336000012283F83D207B68002283F83C20002363
:1033700018461437BD4680BC704700BF002C014082
:103380000004004080B483B000AF786000BF0C3709
:10339000BD4680BC704780B483B000AF786000BF8A
:1033A0000C37BD4680BC704703460244934200D1AF
:1033B000704703F8011BF9E770B500260C4D0D4C62
:1033C000641BA410A64209D100F096F800260A4D0D
:1033D0000A4C641BA410A64205D170BD55F8043BED
:1033E00098470136EEE755F8043B98470136F2E777
:1033F0003435000834350008343500083835000805
:103400002DE9F041C1F30A57A7F2FF36132E024609
:103410000B460C46054680462FDC002E11DA32A3FF
:10342000D3E90023FCF7C4FF00220023FDF7F4F9E1
:1034300020B1002C51DB254353D12C4623462A468C
:1034400024E02B4F374101EA070C5CEA000C1DD049
:1034500025A3D3E90023FCF7ABFF00220023FDF7EF
:10346000DBF90028EAD0002CC2BF4FF480133341AF
:10347000E418002524EA0704E0E7332E0ADDB6F558
:10348000806F03D1FCF794FF02460B4610461946A5
:10349000BDE8F0814FF0FF3CA7F213472CFA07F785
:1034A0003842F3D010A3D3E90023FCF781FF0022B8
:1034B0000023FDF7B1F90028C0D0002C0ADD142E3E
:1034C00001D1013406E00123C6F13406B3401D44A6
:1034D000A845F6D825EA0705B0E700254FF00044D7
:1034E000ACE70025034CA9E79C7500883CE4377ED7
:1034F000FFFF0F000000F03FF8B500BFF8BC08BCAC
:103500009E467047F8B500BFF8BC08BC9E467047A1
:103510000000000000000000010203040607080983
:1035200002030405060708090A0B0C0D0E0F101004
:043530000102000094
:043534003501000855
:043538001101000875
:10353C000002000400080010002000400080000081
:10354C0008001000200040000100020004000000F0
:10355C0005000000030000000200000080000004D1
:10356C00000100080002001000127A001000000098
:04357C00010000004A
:0400000508001D8151
:00000001FF
